{
  "address": "0x0b0ef0Dd0aEC3cDfBCb0A62db2B22Ffad7921429",
  "abi": [
    {
      "inputs": [],
      "stateMutability": "nonpayable",
      "type": "constructor"
    },
    {
      "anonymous": false,
      "inputs": [
        {
          "indexed": true,
          "internalType": "address",
          "name": "account",
          "type": "address"
        },
        {
          "indexed": true,
          "internalType": "address",
          "name": "operator",
          "type": "address"
        },
        {
          "indexed": false,
          "internalType": "bool",
          "name": "approved",
          "type": "bool"
        }
      ],
      "name": "ApprovalForAll",
      "type": "event"
    },
    {
      "anonymous": false,
      "inputs": [
        {
          "indexed": false,
          "internalType": "uint256",
          "name": "amount",
          "type": "uint256"
        }
      ],
      "name": "BatchNftAirDrop",
      "type": "event"
    },
    {
      "anonymous": false,
      "inputs": [
        {
          "indexed": true,
          "internalType": "address",
          "name": "previousOwner",
          "type": "address"
        },
        {
          "indexed": true,
          "internalType": "address",
          "name": "newOwner",
          "type": "address"
        }
      ],
      "name": "OwnershipTransferred",
      "type": "event"
    },
    {
      "anonymous": false,
      "inputs": [
        {
          "indexed": true,
          "internalType": "address",
          "name": "operator",
          "type": "address"
        },
        {
          "indexed": true,
          "internalType": "address",
          "name": "from",
          "type": "address"
        },
        {
          "indexed": true,
          "internalType": "address",
          "name": "to",
          "type": "address"
        },
        {
          "indexed": false,
          "internalType": "uint256[]",
          "name": "ids",
          "type": "uint256[]"
        },
        {
          "indexed": false,
          "internalType": "uint256[]",
          "name": "values",
          "type": "uint256[]"
        }
      ],
      "name": "TransferBatch",
      "type": "event"
    },
    {
      "anonymous": false,
      "inputs": [
        {
          "indexed": true,
          "internalType": "address",
          "name": "operator",
          "type": "address"
        },
        {
          "indexed": true,
          "internalType": "address",
          "name": "from",
          "type": "address"
        },
        {
          "indexed": true,
          "internalType": "address",
          "name": "to",
          "type": "address"
        },
        {
          "indexed": false,
          "internalType": "uint256",
          "name": "id",
          "type": "uint256"
        },
        {
          "indexed": false,
          "internalType": "uint256",
          "name": "value",
          "type": "uint256"
        }
      ],
      "name": "TransferSingle",
      "type": "event"
    },
    {
      "anonymous": false,
      "inputs": [
        {
          "indexed": false,
          "internalType": "string",
          "name": "value",
          "type": "string"
        },
        {
          "indexed": true,
          "internalType": "uint256",
          "name": "id",
          "type": "uint256"
        }
      ],
      "name": "URI",
      "type": "event"
    },
    {
      "inputs": [],
      "name": "EICO_CONTRIBUTOR_ID",
      "outputs": [
        {
          "internalType": "uint256",
          "name": "",
          "type": "uint256"
        }
      ],
      "stateMutability": "view",
      "type": "function"
    },
    {
      "inputs": [
        {
          "internalType": "address",
          "name": "account",
          "type": "address"
        },
        {
          "internalType": "uint256",
          "name": "id",
          "type": "uint256"
        }
      ],
      "name": "balanceOf",
      "outputs": [
        {
          "internalType": "uint256",
          "name": "",
          "type": "uint256"
        }
      ],
      "stateMutability": "view",
      "type": "function"
    },
    {
      "inputs": [
        {
          "internalType": "address[]",
          "name": "accounts",
          "type": "address[]"
        },
        {
          "internalType": "uint256[]",
          "name": "ids",
          "type": "uint256[]"
        }
      ],
      "name": "balanceOfBatch",
      "outputs": [
        {
          "internalType": "uint256[]",
          "name": "",
          "type": "uint256[]"
        }
      ],
      "stateMutability": "view",
      "type": "function"
    },
    {
      "inputs": [
        {
          "internalType": "address[]",
          "name": "_recipients",
          "type": "address[]"
        }
      ],
      "name": "batchAirDrop",
      "outputs": [],
      "stateMutability": "nonpayable",
      "type": "function"
    },
    {
      "inputs": [
        {
          "internalType": "address",
          "name": "account",
          "type": "address"
        },
        {
          "internalType": "uint256",
          "name": "id",
          "type": "uint256"
        },
        {
          "internalType": "uint256",
          "name": "value",
          "type": "uint256"
        }
      ],
      "name": "burn",
      "outputs": [],
      "stateMutability": "nonpayable",
      "type": "function"
    },
    {
      "inputs": [
        {
          "internalType": "address",
          "name": "account",
          "type": "address"
        },
        {
          "internalType": "uint256[]",
          "name": "ids",
          "type": "uint256[]"
        },
        {
          "internalType": "uint256[]",
          "name": "values",
          "type": "uint256[]"
        }
      ],
      "name": "burnBatch",
      "outputs": [],
      "stateMutability": "nonpayable",
      "type": "function"
    },
    {
      "inputs": [
        {
          "internalType": "address",
          "name": "from",
          "type": "address"
        },
        {
          "internalType": "uint256",
          "name": "amount",
          "type": "uint256"
        }
      ],
      "name": "burnNFT",
      "outputs": [],
      "stateMutability": "nonpayable",
      "type": "function"
    },
    {
      "inputs": [],
      "name": "getTotalSupply",
      "outputs": [
        {
          "internalType": "uint256",
          "name": "",
          "type": "uint256"
        }
      ],
      "stateMutability": "view",
      "type": "function"
    },
    {
      "inputs": [
        {
          "internalType": "address",
          "name": "account",
          "type": "address"
        },
        {
          "internalType": "address",
          "name": "operator",
          "type": "address"
        }
      ],
      "name": "isApprovedForAll",
      "outputs": [
        {
          "internalType": "bool",
          "name": "",
          "type": "bool"
        }
      ],
      "stateMutability": "view",
      "type": "function"
    },
    {
      "inputs": [
        {
          "internalType": "address",
          "name": "to",
          "type": "address"
        },
        {
          "internalType": "uint256",
          "name": "amount",
          "type": "uint256"
        }
      ],
      "name": "mint",
      "outputs": [],
      "stateMutability": "nonpayable",
      "type": "function"
    },
    {
      "inputs": [],
      "name": "name",
      "outputs": [
        {
          "internalType": "string",
          "name": "",
          "type": "string"
        }
      ],
      "stateMutability": "view",
      "type": "function"
    },
    {
      "inputs": [],
      "name": "owner",
      "outputs": [
        {
          "internalType": "address",
          "name": "",
          "type": "address"
        }
      ],
      "stateMutability": "view",
      "type": "function"
    },
    {
      "inputs": [],
      "name": "renounceOwnership",
      "outputs": [],
      "stateMutability": "nonpayable",
      "type": "function"
    },
    {
      "inputs": [
        {
          "internalType": "address",
          "name": "from",
          "type": "address"
        },
        {
          "internalType": "address",
          "name": "to",
          "type": "address"
        },
        {
          "internalType": "uint256[]",
          "name": "ids",
          "type": "uint256[]"
        },
        {
          "internalType": "uint256[]",
          "name": "amounts",
          "type": "uint256[]"
        },
        {
          "internalType": "bytes",
          "name": "data",
          "type": "bytes"
        }
      ],
      "name": "safeBatchTransferFrom",
      "outputs": [],
      "stateMutability": "nonpayable",
      "type": "function"
    },
    {
      "inputs": [
        {
          "internalType": "address",
          "name": "from",
          "type": "address"
        },
        {
          "internalType": "address",
          "name": "to",
          "type": "address"
        },
        {
          "internalType": "uint256",
          "name": "id",
          "type": "uint256"
        },
        {
          "internalType": "uint256",
          "name": "amount",
          "type": "uint256"
        },
        {
          "internalType": "bytes",
          "name": "data",
          "type": "bytes"
        }
      ],
      "name": "safeTransferFrom",
      "outputs": [],
      "stateMutability": "nonpayable",
      "type": "function"
    },
    {
      "inputs": [
        {
          "internalType": "address",
          "name": "operator",
          "type": "address"
        },
        {
          "internalType": "bool",
          "name": "approved",
          "type": "bool"
        }
      ],
      "name": "setApprovalForAll",
      "outputs": [],
      "stateMutability": "nonpayable",
      "type": "function"
    },
    {
      "inputs": [
        {
          "internalType": "string",
          "name": "_newName",
          "type": "string"
        },
        {
          "internalType": "string",
          "name": "_newSymbol",
          "type": "string"
        }
      ],
      "name": "setNameAndSymbol",
      "outputs": [],
      "stateMutability": "nonpayable",
      "type": "function"
    },
    {
      "inputs": [
        {
          "internalType": "string",
          "name": "uri",
          "type": "string"
        }
      ],
      "name": "setURI",
      "outputs": [],
      "stateMutability": "nonpayable",
      "type": "function"
    },
    {
      "inputs": [
        {
          "internalType": "bytes4",
          "name": "interfaceId",
          "type": "bytes4"
        }
      ],
      "name": "supportsInterface",
      "outputs": [
        {
          "internalType": "bool",
          "name": "",
          "type": "bool"
        }
      ],
      "stateMutability": "view",
      "type": "function"
    },
    {
      "inputs": [],
      "name": "symbol",
      "outputs": [
        {
          "internalType": "string",
          "name": "",
          "type": "string"
        }
      ],
      "stateMutability": "view",
      "type": "function"
    },
    {
      "inputs": [
        {
          "internalType": "address",
          "name": "newOwner",
          "type": "address"
        }
      ],
      "name": "transferOwnership",
      "outputs": [],
      "stateMutability": "nonpayable",
      "type": "function"
    },
    {
      "inputs": [
        {
          "internalType": "uint256",
          "name": "",
          "type": "uint256"
        }
      ],
      "name": "uri",
      "outputs": [
        {
          "internalType": "string",
          "name": "",
          "type": "string"
        }
      ],
      "stateMutability": "view",
      "type": "function"
    }
  ],
  "transactionHash": "0xed7a27d51b75d7ebf07e4785435c509546da9aa1952e2ca4bc849caedf53f993",
  "args": [],
  "numDeployments": 1,
  "solcInputHash": "b10f03352f8d24fd9b095b3c74016d32",
  "bytecode": "0x60806040526040518060400160405280601481526020017f4549434f20436f6e7472696275746f72204e46540000000000000000000000008152506005908051906020019062000051929190620001ea565b506040518060400160405280600481526020017f4549434f00000000000000000000000000000000000000000000000000000000815250600690805190602001906200009f929190620001ea565b50348015620000ad57600080fd5b5060405180608001604052806042815260200162003ee860429139620000d9816200010060201b60201c565b50620000fa620000ee6200011c60201b60201c565b6200012460201b60201c565b620002ff565b806002908051906020019062000118929190620001ea565b5050565b600033905090565b6000600360009054906101000a900473ffffffffffffffffffffffffffffffffffffffff16905081600360006101000a81548173ffffffffffffffffffffffffffffffffffffffff021916908373ffffffffffffffffffffffffffffffffffffffff1602179055508173ffffffffffffffffffffffffffffffffffffffff168173ffffffffffffffffffffffffffffffffffffffff167f8be0079c531659141344cd1fd0a4f28419497f9722a3daafe3b4186f6b6457e060405160405180910390a35050565b828054620001f890620002c9565b90600052602060002090601f0160209004810192826200021c576000855562000268565b82601f106200023757805160ff191683800117855562000268565b8280016001018555821562000268579182015b82811115620002675782518255916020019190600101906200024a565b5b5090506200027791906200027b565b5090565b5b80821115620002965760008160009055506001016200027c565b5090565b7f4e487b7100000000000000000000000000000000000000000000000000000000600052602260045260246000fd5b60006002820490506001821680620002e257607f821691505b60208210811415620002f957620002f86200029a565b5b50919050565b613bd9806200030f6000396000f3fe608060405234801561001057600080fd5b50600436106101415760003560e01c80636b20c454116100b8578063a43f31731161007c578063a43f31731461034c578063c4e41b2214610368578063e985e9c514610386578063f242432a146103b6578063f2fde38b146103d2578063f5298aca146103ee57610141565b80636b20c454146102ce578063715018a6146102ea5780638da5cb5b146102f457806395d89b4114610312578063a22cb4651461033057610141565b806319801fc81161010a57806319801fc8146102105780632eb2c2d61461022e57806340c10f191461024a57806347fcf018146102665780634e1273f4146102825780635a446215146102b257610141565b8062fdd58e1461014657806301ffc9a71461017657806302fe5305146101a657806306fdde03146101c25780630e89341c146101e0575b600080fd5b610160600480360381019061015b9190612442565b61040a565b60405161016d9190612491565b60405180910390f35b610190600480360381019061018b9190612504565b6104d3565b60405161019d919061254c565b60405180910390f35b6101c060048036038101906101bb91906126ad565b6105b5565b005b6101ca6105c9565b6040516101d7919061277e565b60405180910390f35b6101fa60048036038101906101f591906127a0565b61065b565b604051610207919061277e565b60405180910390f35b6102186106ef565b6040516102259190612491565b60405180910390f35b61024860048036038101906102439190612936565b6106f4565b005b610264600480360381019061025f9190612442565b610795565b005b610280600480360381019061027b9190612442565b6107d1565b005b61029c60048036038101906102979190612ac8565b6107fd565b6040516102a99190612bfe565b60405180910390f35b6102cc60048036038101906102c79190612c7b565b610916565b005b6102e860048036038101906102e39190612cfc565b610948565b005b6102f26109e5565b005b6102fc6109f9565b6040516103099190612d96565b60405180910390f35b61031a610a23565b604051610327919061277e565b60405180910390f35b61034a60048036038101906103459190612ddd565b610ab5565b005b61036660048036038101906103619190612e1d565b610acb565b005b610370610bd4565b60405161037d9190612491565b60405180910390f35b6103a0600480360381019061039b9190612e66565b610bde565b6040516103ad919061254c565b60405180910390f35b6103d060048036038101906103cb9190612ea6565b610c72565b005b6103ec60048036038101906103e79190612f3d565b610d13565b005b61040860048036038101906104039190612f6a565b610d97565b005b60008073ffffffffffffffffffffffffffffffffffffffff168373ffffffffffffffffffffffffffffffffffffffff16141561047b576040517f08c379a00000000000000000000000000000000000000000000000000000000081526004016104729061302f565b60405180910390fd5b60008083815260200190815260200160002060008473ffffffffffffffffffffffffffffffffffffffff1673ffffffffffffffffffffffffffffffffffffffff16815260200190815260200160002054905092915050565b60007fd9b67a26000000000000000000000000000000000000000000000000000000007bffffffffffffffffffffffffffffffffffffffffffffffffffffffff1916827bffffffffffffffffffffffffffffffffffffffffffffffffffffffff1916148061059e57507f0e89341c000000000000000000000000000000000000000000000000000000007bffffffffffffffffffffffffffffffffffffffffffffffffffffffff1916827bffffffffffffffffffffffffffffffffffffffffffffffffffffffff1916145b806105ae57506105ad82610e34565b5b9050919050565b6105bd610e9e565b6105c681610f1c565b50565b6060600580546105d89061307e565b80601f01602080910402602001604051908101604052809291908181526020018280546106049061307e565b80156106515780601f1061062657610100808354040283529160200191610651565b820191906000526020600020905b81548152906001019060200180831161063457829003601f168201915b5050505050905090565b60606002805461066a9061307e565b80601f01602080910402602001604051908101604052809291908181526020018280546106969061307e565b80156106e35780601f106106b8576101008083540402835291602001916106e3565b820191906000526020600020905b8154815290600101906020018083116106c657829003601f168201915b50505050509050919050565b600181565b6106fc610f36565b73ffffffffffffffffffffffffffffffffffffffff168573ffffffffffffffffffffffffffffffffffffffff16148061074257506107418561073c610f36565b610bde565b5b610781576040517f08c379a000000000000000000000000000000000000000000000000000000000815260040161077890613122565b60405180910390fd5b61078e8585858585610f3e565b5050505050565b61079d610e9e565b806004546107ab9190613171565b6004819055506107cd8260018360405180602001604052806000815250611260565b5050565b6107d9610e9e565b806004546107e791906131c7565b6004819055506107f982600183611411565b5050565b60608151835114610843576040517f08c379a000000000000000000000000000000000000000000000000000000000815260040161083a9061326d565b60405180910390fd5b6000835167ffffffffffffffff8111156108605761085f612582565b5b60405190808252806020026020018201604052801561088e5781602001602082028036833780820191505090505b50905060005b845181101561090b576108db8582815181106108b3576108b261328d565b5b60200260200101518583815181106108ce576108cd61328d565b5b602002602001015161040a565b8282815181106108ee576108ed61328d565b5b60200260200101818152505080610904906132bc565b9050610894565b508091505092915050565b61091e610e9e565b83836005919061092f929190612271565b50818160069190610941929190612271565b5050505050565b610950610f36565b73ffffffffffffffffffffffffffffffffffffffff168373ffffffffffffffffffffffffffffffffffffffff161480610996575061099583610990610f36565b610bde565b5b6109d5576040517f08c379a00000000000000000000000000000000000000000000000000000000081526004016109cc90613122565b60405180910390fd5b6109e0838383611658565b505050565b6109ed610e9e565b6109f76000611927565b565b6000600360009054906101000a900473ffffffffffffffffffffffffffffffffffffffff16905090565b606060068054610a329061307e565b80601f0160208091040260200160405190810160405280929190818152602001828054610a5e9061307e565b8015610aab5780601f10610a8057610100808354040283529160200191610aab565b820191906000526020600020905b815481529060010190602001808311610a8e57829003601f168201915b5050505050905090565b610ac7610ac0610f36565b83836119ed565b5050565b610ad3610e9e565b60005b8151811015610b9857600073ffffffffffffffffffffffffffffffffffffffff16828281518110610b0a57610b0961328d565b5b602002602001015173ffffffffffffffffffffffffffffffffffffffff1614158015610b5a57506000610b58838381518110610b4957610b4861328d565b5b6020026020010151600161040a565b145b15610b8557610b84828281518110610b7557610b7461328d565b5b60200260200101516001610795565b5b8080610b90906132bc565b915050610ad6565b507ff81edd0b7164e5082eddaee3953f73eea18f2cd0d7956bc52f215050a751b32a8151604051610bc99190612491565b60405180910390a150565b6000600454905090565b6000600160008473ffffffffffffffffffffffffffffffffffffffff1673ffffffffffffffffffffffffffffffffffffffff16815260200190815260200160002060008373ffffffffffffffffffffffffffffffffffffffff1673ffffffffffffffffffffffffffffffffffffffff16815260200190815260200160002060009054906101000a900460ff16905092915050565b610c7a610f36565b73ffffffffffffffffffffffffffffffffffffffff168573ffffffffffffffffffffffffffffffffffffffff161480610cc05750610cbf85610cba610f36565b610bde565b5b610cff576040517f08c379a0000000000000000000000000000000000000000000000000000000008152600401610cf690613122565b60405180910390fd5b610d0c8585858585611b5a565b5050505050565b610d1b610e9e565b600073ffffffffffffffffffffffffffffffffffffffff168173ffffffffffffffffffffffffffffffffffffffff161415610d8b576040517f08c379a0000000000000000000000000000000000000000000000000000000008152600401610d8290613377565b60405180910390fd5b610d9481611927565b50565b610d9f610f36565b73ffffffffffffffffffffffffffffffffffffffff168373ffffffffffffffffffffffffffffffffffffffff161480610de55750610de483610ddf610f36565b610bde565b5b610e24576040517f08c379a0000000000000000000000000000000000000000000000000000000008152600401610e1b90613122565b60405180910390fd5b610e2f838383611411565b505050565b60007f01ffc9a7000000000000000000000000000000000000000000000000000000007bffffffffffffffffffffffffffffffffffffffffffffffffffffffff1916827bffffffffffffffffffffffffffffffffffffffffffffffffffffffff1916149050919050565b610ea6610f36565b73ffffffffffffffffffffffffffffffffffffffff16610ec46109f9565b73ffffffffffffffffffffffffffffffffffffffff1614610f1a576040517f08c379a0000000000000000000000000000000000000000000000000000000008152600401610f11906133e3565b60405180910390fd5b565b8060029080519060200190610f329291906122f7565b5050565b600033905090565b8151835114610f82576040517f08c379a0000000000000000000000000000000000000000000000000000000008152600401610f7990613475565b60405180910390fd5b600073ffffffffffffffffffffffffffffffffffffffff168473ffffffffffffffffffffffffffffffffffffffff161415610ff2576040517f08c379a0000000000000000000000000000000000000000000000000000000008152600401610fe990613507565b60405180910390fd5b6000610ffc610f36565b905061100c818787878787611df6565b60005b84518110156111bd57600085828151811061102d5761102c61328d565b5b60200260200101519050600085838151811061104c5761104b61328d565b5b60200260200101519050600080600084815260200190815260200160002060008b73ffffffffffffffffffffffffffffffffffffffff1673ffffffffffffffffffffffffffffffffffffffff168152602001908152602001600020549050818110156110ed576040517f08c379a00000000000000000000000000000000000000000000000000000000081526004016110e490613599565b60405180910390fd5b81810360008085815260200190815260200160002060008c73ffffffffffffffffffffffffffffffffffffffff1673ffffffffffffffffffffffffffffffffffffffff168152602001908152602001600020819055508160008085815260200190815260200160002060008b73ffffffffffffffffffffffffffffffffffffffff1673ffffffffffffffffffffffffffffffffffffffff16815260200190815260200160002060008282546111a29190613171565b92505081905550505050806111b6906132bc565b905061100f565b508473ffffffffffffffffffffffffffffffffffffffff168673ffffffffffffffffffffffffffffffffffffffff168273ffffffffffffffffffffffffffffffffffffffff167f4a39dc06d4c0dbc64b70af90fd698a233a518aa5d07e595d983b8c0526c8f7fb87876040516112349291906135b9565b60405180910390a461124a818787878787611dfe565b611258818787878787611e06565b505050505050565b600073ffffffffffffffffffffffffffffffffffffffff168473ffffffffffffffffffffffffffffffffffffffff1614156112d0576040517f08c379a00000000000000000000000000000000000000000000000000000000081526004016112c790613662565b60405180910390fd5b60006112da610f36565b905060006112e785611fed565b905060006112f485611fed565b905061130583600089858589611df6565b8460008088815260200190815260200160002060008973ffffffffffffffffffffffffffffffffffffffff1673ffffffffffffffffffffffffffffffffffffffff16815260200190815260200160002060008282546113649190613171565b925050819055508673ffffffffffffffffffffffffffffffffffffffff16600073ffffffffffffffffffffffffffffffffffffffff168473ffffffffffffffffffffffffffffffffffffffff167fc3d58168c5ae7397731d063d5bbf3d657854427343f4c083240f7aacaa2d0f6289896040516113e2929190613682565b60405180910390a46113f983600089858589611dfe565b61140883600089898989612067565b50505050505050565b600073ffffffffffffffffffffffffffffffffffffffff168373ffffffffffffffffffffffffffffffffffffffff161415611481576040517f08c379a00000000000000000000000000000000000000000000000000000000081526004016114789061371d565b60405180910390fd5b600061148b610f36565b9050600061149884611fed565b905060006114a584611fed565b90506114c583876000858560405180602001604052806000815250611df6565b600080600087815260200190815260200160002060008873ffffffffffffffffffffffffffffffffffffffff1673ffffffffffffffffffffffffffffffffffffffff1681526020019081526020016000205490508481101561155c576040517f08c379a0000000000000000000000000000000000000000000000000000000008152600401611553906137af565b60405180910390fd5b84810360008088815260200190815260200160002060008973ffffffffffffffffffffffffffffffffffffffff1673ffffffffffffffffffffffffffffffffffffffff16815260200190815260200160002081905550600073ffffffffffffffffffffffffffffffffffffffff168773ffffffffffffffffffffffffffffffffffffffff168573ffffffffffffffffffffffffffffffffffffffff167fc3d58168c5ae7397731d063d5bbf3d657854427343f4c083240f7aacaa2d0f628989604051611629929190613682565b60405180910390a461164f84886000868660405180602001604052806000815250611dfe565b50505050505050565b600073ffffffffffffffffffffffffffffffffffffffff168373ffffffffffffffffffffffffffffffffffffffff1614156116c8576040517f08c379a00000000000000000000000000000000000000000000000000000000081526004016116bf9061371d565b60405180910390fd5b805182511461170c576040517f08c379a000000000000000000000000000000000000000000000000000000000815260040161170390613475565b60405180910390fd5b6000611716610f36565b905061173681856000868660405180602001604052806000815250611df6565b60005b83518110156118835760008482815181106117575761175661328d565b5b6020026020010151905060008483815181106117765761177561328d565b5b60200260200101519050600080600084815260200190815260200160002060008973ffffffffffffffffffffffffffffffffffffffff1673ffffffffffffffffffffffffffffffffffffffff16815260200190815260200160002054905081811015611817576040517f08c379a000000000000000000000000000000000000000000000000000000000815260040161180e906137af565b60405180910390fd5b81810360008085815260200190815260200160002060008a73ffffffffffffffffffffffffffffffffffffffff1673ffffffffffffffffffffffffffffffffffffffff16815260200190815260200160002081905550505050808061187b906132bc565b915050611739565b50600073ffffffffffffffffffffffffffffffffffffffff168473ffffffffffffffffffffffffffffffffffffffff168273ffffffffffffffffffffffffffffffffffffffff167f4a39dc06d4c0dbc64b70af90fd698a233a518aa5d07e595d983b8c0526c8f7fb86866040516118fb9291906135b9565b60405180910390a461192181856000868660405180602001604052806000815250611dfe565b50505050565b6000600360009054906101000a900473ffffffffffffffffffffffffffffffffffffffff16905081600360006101000a81548173ffffffffffffffffffffffffffffffffffffffff021916908373ffffffffffffffffffffffffffffffffffffffff1602179055508173ffffffffffffffffffffffffffffffffffffffff168173ffffffffffffffffffffffffffffffffffffffff167f8be0079c531659141344cd1fd0a4f28419497f9722a3daafe3b4186f6b6457e060405160405180910390a35050565b8173ffffffffffffffffffffffffffffffffffffffff168373ffffffffffffffffffffffffffffffffffffffff161415611a5c576040517f08c379a0000000000000000000000000000000000000000000000000000000008152600401611a5390613841565b60405180910390fd5b80600160008573ffffffffffffffffffffffffffffffffffffffff1673ffffffffffffffffffffffffffffffffffffffff16815260200190815260200160002060008473ffffffffffffffffffffffffffffffffffffffff1673ffffffffffffffffffffffffffffffffffffffff16815260200190815260200160002060006101000a81548160ff0219169083151502179055508173ffffffffffffffffffffffffffffffffffffffff168373ffffffffffffffffffffffffffffffffffffffff167f17307eab39ab6107e8899845ad3d59bd9653f200f220920489ca2b5937696c3183604051611b4d919061254c565b60405180910390a3505050565b600073ffffffffffffffffffffffffffffffffffffffff168473ffffffffffffffffffffffffffffffffffffffff161415611bca576040517f08c379a0000000000000000000000000000000000000000000000000000000008152600401611bc190613507565b60405180910390fd5b6000611bd4610f36565b90506000611be185611fed565b90506000611bee85611fed565b9050611bfe838989858589611df6565b600080600088815260200190815260200160002060008a73ffffffffffffffffffffffffffffffffffffffff1673ffffffffffffffffffffffffffffffffffffffff16815260200190815260200160002054905085811015611c95576040517f08c379a0000000000000000000000000000000000000000000000000000000008152600401611c8c90613599565b60405180910390fd5b85810360008089815260200190815260200160002060008b73ffffffffffffffffffffffffffffffffffffffff1673ffffffffffffffffffffffffffffffffffffffff168152602001908152602001600020819055508560008089815260200190815260200160002060008a73ffffffffffffffffffffffffffffffffffffffff1673ffffffffffffffffffffffffffffffffffffffff1681526020019081526020016000206000828254611d4a9190613171565b925050819055508773ffffffffffffffffffffffffffffffffffffffff168973ffffffffffffffffffffffffffffffffffffffff168573ffffffffffffffffffffffffffffffffffffffff167fc3d58168c5ae7397731d063d5bbf3d657854427343f4c083240f7aacaa2d0f628a8a604051611dc7929190613682565b60405180910390a4611ddd848a8a86868a611dfe565b611deb848a8a8a8a8a612067565b505050505050505050565b505050505050565b505050505050565b611e258473ffffffffffffffffffffffffffffffffffffffff1661224e565b15611fe5578373ffffffffffffffffffffffffffffffffffffffff1663bc197c8187878686866040518663ffffffff1660e01b8152600401611e6b9594939291906138b6565b602060405180830381600087803b158015611e8557600080fd5b505af1925050508015611eb657506040513d601f19601f82011682018060405250810190611eb39190613933565b60015b611f5c57611ec261396d565b806308c379a01415611f1f5750611ed761398f565b80611ee25750611f21565b806040517f08c379a0000000000000000000000000000000000000000000000000000000008152600401611f16919061277e565b60405180910390fd5b505b6040517f08c379a0000000000000000000000000000000000000000000000000000000008152600401611f5390613a97565b60405180910390fd5b63bc197c8160e01b7bffffffffffffffffffffffffffffffffffffffffffffffffffffffff1916817bffffffffffffffffffffffffffffffffffffffffffffffffffffffff191614611fe3576040517f08c379a0000000000000000000000000000000000000000000000000000000008152600401611fda90613b29565b60405180910390fd5b505b505050505050565b60606000600167ffffffffffffffff81111561200c5761200b612582565b5b60405190808252806020026020018201604052801561203a5781602001602082028036833780820191505090505b50905082816000815181106120525761205161328d565b5b60200260200101818152505080915050919050565b6120868473ffffffffffffffffffffffffffffffffffffffff1661224e565b15612246578373ffffffffffffffffffffffffffffffffffffffff1663f23a6e6187878686866040518663ffffffff1660e01b81526004016120cc959493929190613b49565b602060405180830381600087803b1580156120e657600080fd5b505af192505050801561211757506040513d601f19601f820116820180604052508101906121149190613933565b60015b6121bd5761212361396d565b806308c379a01415612180575061213861398f565b806121435750612182565b806040517f08c379a0000000000000000000000000000000000000000000000000000000008152600401612177919061277e565b60405180910390fd5b505b6040517f08c379a00000000000000000000000000000000000000000000000000000000081526004016121b490613a97565b60405180910390fd5b63f23a6e6160e01b7bffffffffffffffffffffffffffffffffffffffffffffffffffffffff1916817bffffffffffffffffffffffffffffffffffffffffffffffffffffffff191614612244576040517f08c379a000000000000000000000000000000000000000000000000000000000815260040161223b90613b29565b60405180910390fd5b505b505050505050565b6000808273ffffffffffffffffffffffffffffffffffffffff163b119050919050565b82805461227d9061307e565b90600052602060002090601f01602090048101928261229f57600085556122e6565b82601f106122b857803560ff19168380011785556122e6565b828001600101855582156122e6579182015b828111156122e55782358255916020019190600101906122ca565b5b5090506122f3919061237d565b5090565b8280546123039061307e565b90600052602060002090601f016020900481019282612325576000855561236c565b82601f1061233e57805160ff191683800117855561236c565b8280016001018555821561236c579182015b8281111561236b578251825591602001919060010190612350565b5b509050612379919061237d565b5090565b5b8082111561239657600081600090555060010161237e565b5090565b6000604051905090565b600080fd5b600080fd5b600073ffffffffffffffffffffffffffffffffffffffff82169050919050565b60006123d9826123ae565b9050919050565b6123e9816123ce565b81146123f457600080fd5b50565b600081359050612406816123e0565b92915050565b6000819050919050565b61241f8161240c565b811461242a57600080fd5b50565b60008135905061243c81612416565b92915050565b60008060408385031215612459576124586123a4565b5b6000612467858286016123f7565b92505060206124788582860161242d565b9150509250929050565b61248b8161240c565b82525050565b60006020820190506124a66000830184612482565b92915050565b60007fffffffff0000000000000000000000000000000000000000000000000000000082169050919050565b6124e1816124ac565b81146124ec57600080fd5b50565b6000813590506124fe816124d8565b92915050565b60006020828403121561251a576125196123a4565b5b6000612528848285016124ef565b91505092915050565b60008115159050919050565b61254681612531565b82525050565b6000602082019050612561600083018461253d565b92915050565b600080fd5b600080fd5b6000601f19601f8301169050919050565b7f4e487b7100000000000000000000000000000000000000000000000000000000600052604160045260246000fd5b6125ba82612571565b810181811067ffffffffffffffff821117156125d9576125d8612582565b5b80604052505050565b60006125ec61239a565b90506125f882826125b1565b919050565b600067ffffffffffffffff82111561261857612617612582565b5b61262182612571565b9050602081019050919050565b82818337600083830152505050565b600061265061264b846125fd565b6125e2565b90508281526020810184848401111561266c5761266b61256c565b5b61267784828561262e565b509392505050565b600082601f83011261269457612693612567565b5b81356126a484826020860161263d565b91505092915050565b6000602082840312156126c3576126c26123a4565b5b600082013567ffffffffffffffff8111156126e1576126e06123a9565b5b6126ed8482850161267f565b91505092915050565b600081519050919050565b600082825260208201905092915050565b60005b83811015612730578082015181840152602081019050612715565b8381111561273f576000848401525b50505050565b6000612750826126f6565b61275a8185612701565b935061276a818560208601612712565b61277381612571565b840191505092915050565b600060208201905081810360008301526127988184612745565b905092915050565b6000602082840312156127b6576127b56123a4565b5b60006127c48482850161242d565b91505092915050565b600067ffffffffffffffff8211156127e8576127e7612582565b5b602082029050602081019050919050565b600080fd5b600061281161280c846127cd565b6125e2565b90508083825260208201905060208402830185811115612834576128336127f9565b5b835b8181101561285d5780612849888261242d565b845260208401935050602081019050612836565b5050509392505050565b600082601f83011261287c5761287b612567565b5b813561288c8482602086016127fe565b91505092915050565b600067ffffffffffffffff8211156128b0576128af612582565b5b6128b982612571565b9050602081019050919050565b60006128d96128d484612895565b6125e2565b9050828152602081018484840111156128f5576128f461256c565b5b61290084828561262e565b509392505050565b600082601f83011261291d5761291c612567565b5b813561292d8482602086016128c6565b91505092915050565b600080600080600060a08688031215612952576129516123a4565b5b6000612960888289016123f7565b9550506020612971888289016123f7565b945050604086013567ffffffffffffffff811115612992576129916123a9565b5b61299e88828901612867565b935050606086013567ffffffffffffffff8111156129bf576129be6123a9565b5b6129cb88828901612867565b925050608086013567ffffffffffffffff8111156129ec576129eb6123a9565b5b6129f888828901612908565b9150509295509295909350565b600067ffffffffffffffff821115612a2057612a1f612582565b5b602082029050602081019050919050565b6000612a44612a3f84612a05565b6125e2565b90508083825260208201905060208402830185811115612a6757612a666127f9565b5b835b81811015612a905780612a7c88826123f7565b845260208401935050602081019050612a69565b5050509392505050565b600082601f830112612aaf57612aae612567565b5b8135612abf848260208601612a31565b91505092915050565b60008060408385031215612adf57612ade6123a4565b5b600083013567ffffffffffffffff811115612afd57612afc6123a9565b5b612b0985828601612a9a565b925050602083013567ffffffffffffffff811115612b2a57612b296123a9565b5b612b3685828601612867565b9150509250929050565b600081519050919050565b600082825260208201905092915050565b6000819050602082019050919050565b612b758161240c565b82525050565b6000612b878383612b6c565b60208301905092915050565b6000602082019050919050565b6000612bab82612b40565b612bb58185612b4b565b9350612bc083612b5c565b8060005b83811015612bf1578151612bd88882612b7b565b9750612be383612b93565b925050600181019050612bc4565b5085935050505092915050565b60006020820190508181036000830152612c188184612ba0565b905092915050565b600080fd5b60008083601f840112612c3b57612c3a612567565b5b8235905067ffffffffffffffff811115612c5857612c57612c20565b5b602083019150836001820283011115612c7457612c736127f9565b5b9250929050565b60008060008060408587031215612c9557612c946123a4565b5b600085013567ffffffffffffffff811115612cb357612cb26123a9565b5b612cbf87828801612c25565b9450945050602085013567ffffffffffffffff811115612ce257612ce16123a9565b5b612cee87828801612c25565b925092505092959194509250565b600080600060608486031215612d1557612d146123a4565b5b6000612d23868287016123f7565b935050602084013567ffffffffffffffff811115612d4457612d436123a9565b5b612d5086828701612867565b925050604084013567ffffffffffffffff811115612d7157612d706123a9565b5b612d7d86828701612867565b9150509250925092565b612d90816123ce565b82525050565b6000602082019050612dab6000830184612d87565b92915050565b612dba81612531565b8114612dc557600080fd5b50565b600081359050612dd781612db1565b92915050565b60008060408385031215612df457612df36123a4565b5b6000612e02858286016123f7565b9250506020612e1385828601612dc8565b9150509250929050565b600060208284031215612e3357612e326123a4565b5b600082013567ffffffffffffffff811115612e5157612e506123a9565b5b612e5d84828501612a9a565b91505092915050565b60008060408385031215612e7d57612e7c6123a4565b5b6000612e8b858286016123f7565b9250506020612e9c858286016123f7565b9150509250929050565b600080600080600060a08688031215612ec257612ec16123a4565b5b6000612ed0888289016123f7565b9550506020612ee1888289016123f7565b9450506040612ef28882890161242d565b9350506060612f038882890161242d565b925050608086013567ffffffffffffffff811115612f2457612f236123a9565b5b612f3088828901612908565b9150509295509295909350565b600060208284031215612f5357612f526123a4565b5b6000612f61848285016123f7565b91505092915050565b600080600060608486031215612f8357612f826123a4565b5b6000612f91868287016123f7565b9350506020612fa28682870161242d565b9250506040612fb38682870161242d565b9150509250925092565b7f455243313135353a2061646472657373207a65726f206973206e6f742061207660008201527f616c6964206f776e657200000000000000000000000000000000000000000000602082015250565b6000613019602a83612701565b915061302482612fbd565b604082019050919050565b600060208201905081810360008301526130488161300c565b9050919050565b7f4e487b7100000000000000000000000000000000000000000000000000000000600052602260045260246000fd5b6000600282049050600182168061309657607f821691505b602082108114156130aa576130a961304f565b5b50919050565b7f455243313135353a2063616c6c6572206973206e6f7420746f6b656e206f776e60008201527f6572206e6f7220617070726f7665640000000000000000000000000000000000602082015250565b600061310c602f83612701565b9150613117826130b0565b604082019050919050565b6000602082019050818103600083015261313b816130ff565b9050919050565b7f4e487b7100000000000000000000000000000000000000000000000000000000600052601160045260246000fd5b600061317c8261240c565b91506131878361240c565b9250827fffffffffffffffffffffffffffffffffffffffffffffffffffffffffffffffff038211156131bc576131bb613142565b5b828201905092915050565b60006131d28261240c565b91506131dd8361240c565b9250828210156131f0576131ef613142565b5b828203905092915050565b7f455243313135353a206163636f756e747320616e6420696473206c656e67746860008201527f206d69736d617463680000000000000000000000000000000000000000000000602082015250565b6000613257602983612701565b9150613262826131fb565b604082019050919050565b600060208201905081810360008301526132868161324a565b9050919050565b7f4e487b7100000000000000000000000000000000000000000000000000000000600052603260045260246000fd5b60006132c78261240c565b91507fffffffffffffffffffffffffffffffffffffffffffffffffffffffffffffffff8214156132fa576132f9613142565b5b600182019050919050565b7f4f776e61626c653a206e6577206f776e657220697320746865207a65726f206160008201527f6464726573730000000000000000000000000000000000000000000000000000602082015250565b6000613361602683612701565b915061336c82613305565b604082019050919050565b6000602082019050818103600083015261339081613354565b9050919050565b7f4f776e61626c653a2063616c6c6572206973206e6f7420746865206f776e6572600082015250565b60006133cd602083612701565b91506133d882613397565b602082019050919050565b600060208201905081810360008301526133fc816133c0565b9050919050565b7f455243313135353a2069647320616e6420616d6f756e7473206c656e6774682060008201527f6d69736d61746368000000000000000000000000000000000000000000000000602082015250565b600061345f602883612701565b915061346a82613403565b604082019050919050565b6000602082019050818103600083015261348e81613452565b9050919050565b7f455243313135353a207472616e7366657220746f20746865207a65726f20616460008201527f6472657373000000000000000000000000000000000000000000000000000000602082015250565b60006134f1602583612701565b91506134fc82613495565b604082019050919050565b60006020820190508181036000830152613520816134e4565b9050919050565b7f455243313135353a20696e73756666696369656e742062616c616e636520666f60008201527f72207472616e7366657200000000000000000000000000000000000000000000602082015250565b6000613583602a83612701565b915061358e82613527565b604082019050919050565b600060208201905081810360008301526135b281613576565b9050919050565b600060408201905081810360008301526135d38185612ba0565b905081810360208301526135e78184612ba0565b90509392505050565b7f455243313135353a206d696e7420746f20746865207a65726f2061646472657360008201527f7300000000000000000000000000000000000000000000000000000000000000602082015250565b600061364c602183612701565b9150613657826135f0565b604082019050919050565b6000602082019050818103600083015261367b8161363f565b9050919050565b60006040820190506136976000830185612482565b6136a46020830184612482565b9392505050565b7f455243313135353a206275726e2066726f6d20746865207a65726f206164647260008201527f6573730000000000000000000000000000000000000000000000000000000000602082015250565b6000613707602383612701565b9150613712826136ab565b604082019050919050565b60006020820190508181036000830152613736816136fa565b9050919050565b7f455243313135353a206275726e20616d6f756e7420657863656564732062616c60008201527f616e636500000000000000000000000000000000000000000000000000000000602082015250565b6000613799602483612701565b91506137a48261373d565b604082019050919050565b600060208201905081810360008301526137c88161378c565b9050919050565b7f455243313135353a2073657474696e6720617070726f76616c2073746174757360008201527f20666f722073656c660000000000000000000000000000000000000000000000602082015250565b600061382b602983612701565b9150613836826137cf565b604082019050919050565b6000602082019050818103600083015261385a8161381e565b9050919050565b600081519050919050565b600082825260208201905092915050565b600061388882613861565b613892818561386c565b93506138a2818560208601612712565b6138ab81612571565b840191505092915050565b600060a0820190506138cb6000830188612d87565b6138d86020830187612d87565b81810360408301526138ea8186612ba0565b905081810360608301526138fe8185612ba0565b90508181036080830152613912818461387d565b90509695505050505050565b60008151905061392d816124d8565b92915050565b600060208284031215613949576139486123a4565b5b60006139578482850161391e565b91505092915050565b60008160e01c9050919050565b600060033d111561398c5760046000803e613989600051613960565b90505b90565b600060443d101561399f57613a22565b6139a761239a565b60043d036004823e80513d602482011167ffffffffffffffff821117156139cf575050613a22565b808201805167ffffffffffffffff8111156139ed5750505050613a22565b80602083010160043d038501811115613a0a575050505050613a22565b613a19826020018501866125b1565b82955050505050505b90565b7f455243313135353a207472616e7366657220746f206e6f6e204552433131353560008201527f526563656976657220696d706c656d656e746572000000000000000000000000602082015250565b6000613a81603483612701565b9150613a8c82613a25565b604082019050919050565b60006020820190508181036000830152613ab081613a74565b9050919050565b7f455243313135353a204552433131353552656365697665722072656a6563746560008201527f6420746f6b656e73000000000000000000000000000000000000000000000000602082015250565b6000613b13602883612701565b9150613b1e82613ab7565b604082019050919050565b60006020820190508181036000830152613b4281613b06565b9050919050565b600060a082019050613b5e6000830188612d87565b613b6b6020830187612d87565b613b786040830186612482565b613b856060830185612482565b8181036080830152613b97818461387d565b9050969550505050505056fea2646970667358221220013fafe7b556eea6e6a188c84f89c99318fd1be1ab544a755e109dba930df99464736f6c63430008080033697066733a2f2f6261666b72656961346b7761616f337878766f34336c77766d6a72753666376c617262336b786e7337326c366e6834783474636966366370327271",
  "devdoc": {
    "kind": "dev",
    "methods": {
      "balanceOf(address,uint256)": {
        "details": "See {IERC1155-balanceOf}. Requirements: - `account` cannot be the zero address."
      },
      "balanceOfBatch(address[],uint256[])": {
        "details": "See {IERC1155-balanceOfBatch}. Requirements: - `accounts` and `ids` must have the same length."
      },
      "isApprovedForAll(address,address)": {
        "details": "See {IERC1155-isApprovedForAll}."
      },
      "owner()": {
        "details": "Returns the address of the current owner."
      },
      "renounceOwnership()": {
        "details": "Leaves the contract without owner. It will not be possible to call `onlyOwner` functions anymore. Can only be called by the current owner. NOTE: Renouncing ownership will leave the contract without an owner, thereby removing any functionality that is only available to the owner."
      },
      "safeBatchTransferFrom(address,address,uint256[],uint256[],bytes)": {
        "details": "See {IERC1155-safeBatchTransferFrom}."
      },
      "safeTransferFrom(address,address,uint256,uint256,bytes)": {
        "details": "See {IERC1155-safeTransferFrom}."
      },
      "setApprovalForAll(address,bool)": {
        "details": "See {IERC1155-setApprovalForAll}."
      },
      "supportsInterface(bytes4)": {
        "details": "See {IERC165-supportsInterface}."
      },
      "transferOwnership(address)": {
        "details": "Transfers ownership of the contract to a new account (`newOwner`). Can only be called by the current owner."
      },
      "uri(uint256)": {
        "details": "See {IERC1155MetadataURI-uri}. This implementation returns the same URI for *all* token types. It relies on the token type ID substitution mechanism https://eips.ethereum.org/EIPS/eip-1155#metadata[defined in the EIP]. Clients calling this function must replace the `\\{id\\}` substring with the actual token type ID."
      }
    },
    "version": 1
  },
  "userdoc": {
    "kind": "user",
    "methods": {},
    "version": 1
  },
  "storageLayout": {
    "storage": [
      {
        "astId": 138,
        "contract": "contracts/eico-nft.sol:EicoNft",
        "label": "_balances",
        "offset": 0,
        "slot": "0",
        "type": "t_mapping(t_uint256,t_mapping(t_address,t_uint256))"
      },
      {
        "astId": 144,
        "contract": "contracts/eico-nft.sol:EicoNft",
        "label": "_operatorApprovals",
        "offset": 0,
        "slot": "1",
        "type": "t_mapping(t_address,t_mapping(t_address,t_bool))"
      },
      {
        "astId": 146,
        "contract": "contracts/eico-nft.sol:EicoNft",
        "label": "_uri",
        "offset": 0,
        "slot": "2",
        "type": "t_string_storage"
      },
      {
        "astId": 7,
        "contract": "contracts/eico-nft.sol:EicoNft",
        "label": "_owner",
        "offset": 0,
        "slot": "3",
        "type": "t_address"
      },
      {
        "astId": 1948,
        "contract": "contracts/eico-nft.sol:EicoNft",
        "label": "s_tokenCounter",
        "offset": 0,
        "slot": "4",
        "type": "t_uint256"
      },
      {
        "astId": 1954,
        "contract": "contracts/eico-nft.sol:EicoNft",
        "label": "_name",
        "offset": 0,
        "slot": "5",
        "type": "t_string_storage"
      },
      {
        "astId": 1957,
        "contract": "contracts/eico-nft.sol:EicoNft",
        "label": "_symbol",
        "offset": 0,
        "slot": "6",
        "type": "t_string_storage"
      }
    ],
    "types": {
      "t_address": {
        "encoding": "inplace",
        "label": "address",
        "numberOfBytes": "20"
      },
      "t_bool": {
        "encoding": "inplace",
        "label": "bool",
        "numberOfBytes": "1"
      },
      "t_mapping(t_address,t_bool)": {
        "encoding": "mapping",
        "key": "t_address",
        "label": "mapping(address => bool)",
        "numberOfBytes": "32",
        "value": "t_bool"
      },
      "t_mapping(t_address,t_mapping(t_address,t_bool))": {
        "encoding": "mapping",
        "key": "t_address",
        "label": "mapping(address => mapping(address => bool))",
        "numberOfBytes": "32",
        "value": "t_mapping(t_address,t_bool)"
      },
      "t_mapping(t_address,t_uint256)": {
        "encoding": "mapping",
        "key": "t_address",
        "label": "mapping(address => uint256)",
        "numberOfBytes": "32",
        "value": "t_uint256"
      },
      "t_mapping(t_uint256,t_mapping(t_address,t_uint256))": {
        "encoding": "mapping",
        "key": "t_uint256",
        "label": "mapping(uint256 => mapping(address => uint256))",
        "numberOfBytes": "32",
        "value": "t_mapping(t_address,t_uint256)"
      },
      "t_string_storage": {
        "encoding": "bytes",
        "label": "string",
        "numberOfBytes": "32"
      },
      "t_uint256": {
        "encoding": "inplace",
        "label": "uint256",
        "numberOfBytes": "32"
      }
    }
  }
}